:020000040800F2
:1000000000500020C91C000853300008553000087B
:1000100057300008593000085B300008000000002D
:100020000000000000000000000000005D3000083B
:100030005F300008000000006130000863300008F5
:10004000111D0008111D0008111D0008111D0008D8
:10005000111D0008111D0008111D0008111D0008C8
:10006000111D0008111D0008111D0008111D0008B8
:10007000111D0008111D0008111D00087130000835
:10008000111D0008111D0008111D0008111D000898
:10009000111D0008111D0008111D0008111D000888
:1000A000111D0008111D0008111D0008111D000878
:1000B000111D0008111D0008111D0008111D000868
:1000C000111D0008111D0008111D0008111D000858
:1000D000111D0008111D0008111D0008111D000848
:1000E000111D0008111D0008111D0008000000006E
:1000F0000000000000000000000000000000000000
:0C01000000000000000000005FF808F1A3
:1001100010B5054C237833B9044B13B10448AFF341
:1001200000800123237010BDDC01002000000000CE
:100130000C5E000808B5034B1BB103490348AFF33D
:10014000008008BD00000000E00100200C5E0008F7
:10015000034613F8012B002AFBD1181A0138704707
:1001600081F0004102E000BF83F0004330B54FEA68
:1001700041044FEA430594EA050F08BF90EA020FD5
:100180001FBF54EA000C55EA020C7FEA645C7FEA68
:10019000655C00F0E2804FEA5454D4EB5555B8BF8B
:1001A0006D420CDD2C4480EA020281EA030382EAFC
:1001B000000083EA010180EA020281EA0303362D8E
:1001C00088BF30BD11F0004F4FEA01314FF4801C61
:1001D0004CEA113102D0404261EB410113F0004F73
:1001E0004FEA03334CEA133302D0524263EB43032A
:1001F00094EA050F00F0A780A4F10104D5F1200EC8
:100200000DDB02FA0EFC22FA05F2801841F1000122
:1002100003FA0EF2801843FA05F359410EE0A5F1F6
:1002200020050EF1200E012A03FA0EFC28BF4CF027
:10023000020C43FA05F3C01851EBE37101F00045DD
:1002400007D54FF0000EDCF1000C7EEB00006EEBEA
:100250000101B1F5801F1BD3B1F5001F0CD3490874
:100260005FEA30004FEA3C0C04F101044FEA4452CB
:1002700012F5800F80F09A80BCF1004F08BF5FEA52
:10028000500C50F1000041EB045141EA050130BD32
:100290005FEA4C0C404141EB010111F4801FA4F1D5
:1002A0000104E9D191F0000F04BF01460020B1FA2A
:1002B00081F308BF2033A3F10B03B3F120020CDA62
:1002C0000C3208DD02F1140CC2F10C0201FA0CF040
:1002D00021FA02F10CE002F11402D8BFC2F1200CA5
:1002E00001FA02F120FA0CFCDCBF41EA0C0190405B
:1002F000E41AA2BF01EB0451294330BD6FEA0404A4
:100300001F3C1CDA0C340EDC04F11404C4F120028E
:1003100020FA04F001FA02F340EA030021FA04F3A0
:1003200045EA030130BDC4F10C04C4F1200220FAF7
:1003300002F001FA04F340EA0300294630BD21FA35
:1003400004F0294630BD94F0000F83F4801306BFFB
:1003500081F480110134013D4EE77FEA645C18BFEF
:100360007FEA655C29D094EA050F08BF90EA020F86
:1003700005D054EA000C04BF1946104630BD91EA7E
:10038000030F1EBF0021002030BD5FEA545C05D181
:100390004000494128BF41F0004130BD14F58004C0
:1003A0003CBF01F5801130BD01F0004545F0FE4134
:1003B00041F470014FF0000030BD7FEA645C1ABF69
:1003C000194610467FEA655C1CBF0B46024650EAA0
:1003D000013406BF52EA033591EA030F41F40021CC
:1003E00030BD00BF90F0000F04BF0021704730B552
:1003F0004FF4806404F132044FF000054FF0000127
:1004000050E700BF90F0000F04BF0021704730B5E7
:100410004FF4806404F1320410F0004548BF4042BC
:100420004FF000013EE700BF42004FEAE2014FEA11
:1004300031014FEA02701FBF12F07F4393F07F4FEC
:1004400081F06051704732F07F4208BF704793F0EF
:100450007F4F04BF41F40021704730B54FF4607402
:1004600001F0004521F000411CE700BF50EA010205
:1004700008BF704730B54FF000050AE050EA0102AE
:1004800008BF704730B511F0004502D5404261EB1E
:1004900041014FF4806404F132045FEA915C3FF45F
:1004A000D8AE4FF003025FEADC0C18BF03325FEAFC
:1004B000DC0C18BF033202EBDC02C2F1200300FAAD
:1004C00003FC20FA02F001FA03FE40EA0E0021FAD2
:1004D00002F11444BDE600BF70B54FF0FF0C4CF4C0
:1004E000E06C1CEA11541DBF1CEA135594EA0C0F72
:1004F00095EA0C0F00F0DEF82C4481EA030621EAAD
:100500004C5123EA4C5350EA013518BF52EA0335E7
:1005100041F4801143F4801338D0A0FB02CE4FF099
:100520000005E1FB02E506F00042E0FB03E54FF0C9
:100530000006E1FB03569CF0000F18BF4EF0010EC1
:10054000A4F1FF04B6F5007F64F5407404D25FEABD
:100550004E0E6D4146EB060642EAC62141EA555170
:100560004FEAC52040EA5E504FEACE2EB4F1FD0CB2
:1005700088BFBCF5E06F1ED8BEF1004F08BF5FEA30
:10058000500E50F1000041EB045170BD06F00046E2
:1005900046EA010140EA020081EA0301B4EB5C048F
:1005A000C2BFD4EB0C0541EA045170BD41F4801187
:1005B0004FF0000E013C00F3AB8014F1360FDEBFAC
:1005C000002001F0004170BDC4F10004203C35DA88
:1005D0000C341BDC04F11404C4F1200500FA05F30B
:1005E00020FA04F001FA05F240EA020001F00042AC
:1005F00021F0004110EBD37021FA04F642EB060122
:100600005EEA430E08BF20EAD37070BDC4F10C044B
:10061000C4F1200500FA04F320FA05F001FA04F20F
:1006200040EA020001F0004110EBD37041F10001FB
:100630005EEA430E08BF20EAD37070BDC4F1200506
:1006400000FA05F24EEA020E20FA04F301FA05F26E
:1006500043EA020321FA04F001F0004121FA04F216
:1006600020EA020000EBD3705EEA430E08BF20EAE6
:10067000D37070BD94F0000F0FD101F00046400020
:1006800041EB010111F4801F08BF013CF7D041EAA2
:10069000060195F0000F18BF704703F000465200A6
:1006A00043EB030313F4801F08BF013DF7D043EA77
:1006B0000603704794EA0C0F0CEA135518BF95EA2D
:1006C0000C0F0CD050EA410618BF52EA4306D1D1B4
:1006D00081EA030101F000414FF0000070BD50EAD3
:1006E000410606BF1046194652EA430619D094EA5D
:1006F0000C0F02D150EA013613D195EA0C0F05D147
:1007000052EA03361CBF104619460AD181EA03019A
:1007100001F0004141F0FE4141F470014FF0000052
:1007200070BD41F0FE4141F4780170BD70B54FF0ED
:10073000FF0C4CF4E06C1CEA11541DBF1CEA13556D
:1007400094EA0C0F95EA0C0F00F0A7F8A4EB05044F
:1007500081EA030E52EA03354FEA013100F0888046
:100760004FEA03334FF0805545EA131343EA12630F
:100770004FEA022245EA111545EA10654FEA0026C4
:100780000EF000419D4208BF964244F1FD0404F57D
:10079000407402D25B084FEA3202B61A65EB0305D9
:1007A0005B084FEA32024FF480104FF4002CB6EB96
:1007B000020E75EB030E22BFB61A754640EA0C0016
:1007C0005B084FEA3202B6EB020E75EB030E22BF56
:1007D000B61A754640EA5C005B084FEA3202B6EB97
:1007E000020E75EB030E22BFB61A754640EA9C0056
:1007F0005B084FEA3202B6EB020E75EB030E22BF26
:10080000B61A754640EADC0055EA060E18D04FEAE3
:10081000051545EA16754FEA06164FEAC30343EA83
:1008200052734FEAC2025FEA1C1CC0D111F4801F50
:100830000BD141EA00014FF000004FF0004CB6E749
:1008400011F4801F04BF01430020B4F1FD0C88BFE8
:10085000BCF5E06F3FF6AFAEB5EB030C04BFB6EBF3
:10086000020C5FEA500C50F1000041EB045170BDE6
:100870000EF0004E4EEA113114EB5C04C2BFD4EB13
:100880000C0541EA045170BD41F480114FF0000E97
:10089000013C90E645EA060E8DE60CEA135594EA13
:1008A0000C0F08BF95EA0C0F3FF43BAF94EA0C0F16
:1008B0000AD150EA01347FF434AF95EA0C0F7FF48B
:1008C00025AF104619462CE795EA0C0F06D152EADF
:1008D00003353FF4FDAE1046194622E750EA4106C3
:1008E00018BF52EA43067FF4C5AE50EA41047FF4D4
:1008F0000DAF52EA43057FF4EBAE12E74FF0FF3C39
:1009000006E000BF4FF0010C02E000BF4FF0010C09
:100910004DF804CD4FEA410C7FEA6C5C4FEA430C82
:1009200018BF7FEA6C5C1BD001B050EA410C0CBFD1
:1009300052EA430C91EA030F02BF90EA020F002033
:10094000704710F1000F91EA030F58BF994208BF9A
:1009500090422CBFD8176FEAE37040F00100704757
:100960004FEA410C7FEA6C5C02D150EA013C07D1AE
:100970004FEA430C7FEA6C5CD6D152EA033CD3D0F9
:100980005DF8040B704700BF8446104662468C46F3
:100990001946634600E000BF01B5FFF7B7FF002826
:1009A00048BF10F1000F01BD4DF808EDFFF7F4FF4F
:1009B0000CBF012000205DF808FB00BF4DF808EDDA
:1009C000FFF7EAFF34BF012000205DF808FB00BFFD
:1009D0004DF808EDFFF7E0FF94BF012000205DF81F
:1009E00008FB00BF4DF808EDFFF7CEFF94BF0120D4
:1009F00000205DF808FB00BF4DF808EDFFF7C4FFCD
:100A000034BF012000205DF808FB00BF4FEA410C15
:100A10007FEA6C5C02D150EA013C0AD14FEA430CF8
:100A20007FEA6C5C02D152EA033C02D14FF0000035
:100A300070474FF0010070474FEA410212F5001273
:100A400015D211D56FF47873B3EB625212D94FEA15
:100A5000C12343F0004343EA505311F0004F23FAFF
:100A600002F018BF404270474FF00000704750EA54
:100A7000013005D111F0004008BF6FF00040704711
:100A80004FF00000704700BF4FEA4102B2F1E0436F
:100A900024BFB3F5001CDCF1FE5C0DD901F0004C65
:100AA0004FEAC0024CEA5070B2F1004F40EB8300B5
:100AB00008BF20F00100704711F0804F21D113F1E1
:100AC0003872BCBF01F00040704741F480114FEA1A
:100AD0005252C2F11802C2F1200C10FA0CF320FAA3
:100AE00002F018BF40F001004FEAC1234FEAD323C0
:100AF00003FA0CFC40EA0C0023FA02F34FEA43032A
:100B0000CCE77FEA625307D150EA01331EBF4FF0B2
:100B1000FE4040F44000704701F0004040F0FE40CD
:100B200040F40000704700BF4FEA4002B2F1FE4FB0
:100B30000FD34FF09E03B3EB12620DD94FEA00239F
:100B400043F0004310F0004F23FA02F018BF404278
:100B500070474FF00000704712F1610F01D142025F
:100B600005D110F0004008BF6FF0004070474FF013
:100B70000000704703685A004CBF43F0004323F065
:100B800000431844704700BF61B32DE9F84F01F1ED
:100B9000FF3A90460646D146002707EB090404EBCE
:100BA000D4746410E50071190846FFF7E3FFA2450D
:100BB000834605F10800304409D0FFF7DBFFC34549
:100BC00000F1FF3005D8404509D2671CE5E7C34571
:100BD00005D9A74202D004F1FF39DEE7002108461B
:100BE000BDE8F88F08467047012807D0022807D0D3
:100BF000044B00280CBF184600207047024870477D
:100C000002487047E5120008E9120008ED120008DA
:100C100030B5264B83B004468D1E4BB301A9284640
:100C2000AFF30080F0B101992A46FFF7ADFF01460E
:100C3000C0B1FFF79FFF4B68A064012B2FD0002BA2
:100C400001F1040027DBFFF795FF0023C4E913033C
:100C50000368002B13DBFFF78DFF0023206118468C
:100C600003B030BD092300221846226103B030BD15
:100C70000F4B10491846C91AC9100191D4E7C3F3A4
:100C80000360FFF7B1FF002814BF00230923206190
:100C9000184603B030BD0123C4E91303D8E7052388
:100CA00000221846226103B030BD00BF00000000E2
:100CB0002062000838640008036810B5DA070446AB
:100CC00006D49B0700F1480009D500F067FC2368B3
:100CD000590709D51A070ED5DB0613D510BD00F04C
:100CE00055FC23685907F5D404F1D00000F05EFCF0
:100CF00023681A07F0D404F5A87000F05FFC23689D
:100D0000DB06EBD404F5E870BDE8104000F09ABCB7
:100D1000036803B103441846704700BF09207047B9
:100D2000704700BF70B504460D4608E02A6C236981
:100D3000626121462A4601209847082808D1296C7B
:100D40002046FFF765FF06460028EFD004F0CBFFF2
:100D50000728FBD13046296CFFF7E2FF281D00F081
:100D600009FC00BF2DE9F04705464FF0000CADF53A
:100D7000727D03AC0E1D17460FCE0FC40FCE0FC4ED
:100D80000FCE0FC496E80F00D5F80C80D5F8189058
:100D900084E80F0002ACC4F800C021E0236C4FF4DB
:100DA000F0726B6121467AA804F050F82B697AAA98
:100DB000294630469847889BCDE9004982466364BE
:100DC00031462B462A460120C0470746F8B94FF462
:100DD000F0727AA9204604F039F8BAF1080F1CD154
:100DE000216C2846FFF714FF002F08BF092607468D
:100DF00018BF0A260028D1D0A36B46F01001CDE918
:100E000000492A46636401202B46C04700B10927E8
:100E100038460DF5727DBDE8F087BAF1070FF6D1BF
:100E20003846216CFFF77CFF03A800F0A3FB00BF4E
:100E3000406C70474FF0FF3CF0B5CB6BF9B00B64E2
:100E40000D1D01AC0F4606460FCD0FC40FCD0FC4CC
:100E50000FCD0FC495E80F0084E80F00CDF800C057
:100E600006E033696A46314698470828044608D1A7
:100E700010993046FFF7CCFE0028F2D0092079B057
:100E8000F0BD6846FFF718FF062CF7D1394630460B
:100E9000FFF748FF30B4DD6BC160826119461D6405
:100EA000002230BC5EE700BF70B54369C6680B64C2
:100EB000BEB903690A4604460D460146022098471A
:100EC000072807D0082803D129462046FFF72AFF24
:100ED00004F009FF3046296CFFF722FF281D00F0BF
:100EE00049FB0122FFF73EFF04F0FDFEC2682AB174
:100EF00010B4CC6B00220C6410BC33E79AE700BF3F
:100F0000704700BF836813B101460120184770473E
:100F1000042907D8DFE801F00308060808000BB928
:100F20000F2A03D9022070470120704700EB82008E
:100F300042681846009B1A60704700BF002310B536
:100F400084B003AC0A4600941946FFF7E1FF03980A
:100F500004B010BD042907D8DFE801F00308060833
:100F600008000BB90F2A03D90220704701207047EF
:100F7000009900EB8202096818465160704700BF73
:100F8000002310B584B004AC44F8042D00940A4644
:100F90001946FFF7DFFF04B010BD00BF4FF0FF3C64
:100FA000F0B5D36BADF50F7D1364151D17AC074677
:100FB0000E460FCD0FC40FCD0FC40FCD0FC495E853
:100FC0000F0084E80F00CDF858C012E00C2116A8DD
:100FD0006A46FFF7D5FF314616A8B84778B9049B93
:100FE00016AA6946082098470528044608D009280B
:100FF00005D026996846FFF70BFE0028E6D00924A5
:1010000016A8FFF759FE20460DF50F7DF0BD00BF75
:101010002DE9F04F0D46C96C89B00C1D164600F045
:10102000030B0A681F460694002B68D00221130C9C
:101030008DF81D301204DBB204EB830405928DF8A9
:101040001C102B6DBBF1020F08BFAC6B13F001033A
:1010500046D1019300F008030093D4F80090B9F151
:10106000000F00F0F380022F45D0B4F80090B4F8E0
:1010700002800434AB6C28F0010A0F2130469A44F8
:10108000FFF75CFF824534D829F0010353448342C3
:1010900094BF002001204FEA480808F0020809F038
:1010A000010948EA0908B8F1010F3AD031D3B8F183
:1010B000020F1AD1236823F0004ABBF1000F66D15A
:1010C00030B1009A002A6CD0BAF1000F00F0908085
:1010D000002B00DA04340AF1010304EB8304BCE7BB
:1010E000304605A900F048FB78B1092009B0BDE8F9
:1010F000F08F0020CFE7D4F804800834BAE7032348
:1011000012020592ADF81C309BE7082009B0BDE83B
:10111000F08FBBF1000F02D0002840F0B4800434FF
:101120009BE7BBF1000F18D1A8B1D4E90023991CAB
:101130004FEAD272D9D005F158010133049100F081
:10114000B580201DFFF7E4FD04AB01462846AFF350
:101150000080002867D108347FE70D213046D5F89C
:101160002080FFF7EBFE8045F5D1AB6A9C42F2D1BF
:101170002046FFF7FFFC0F2102463046FFF700FF35
:1011800030462A460021FFF7FBFE0720AEE70D217F
:101190003046D5F82080FFF7D1FE804532D0236855
:1011A00096E7BAF1000F23D005F1580304F10408C3
:1011B000CDF808B0DDF80090A34603971C4602E086
:1011C0005745B94640D040460494FFF7A1FD04AB13
:1011D000014600222846AFF3008009F1010708F11B
:1011E00004080028ECD0D1455C46DDE902B7D6D131
:1011F00030460D21FFF7A2FE049B2862C5E90934A1
:10120000062073E7AB6A9C42C9D104224FF0000864
:10121000A318C5E90AA8C5E90C23236843454DDB9B
:101220000123019357E780460D213046FFF786FEE4
:10123000B8F1020F28623ED12B46049A43F82C2FB6
:101240006B62AC62062051E75C46D1E705A93046E7
:1012500000F092FA00287FF448AF019B002B3FF486
:1012600054AF0F213046FFF769FE0E21024630468B
:10127000FFF786FE30461A4A0F21FFF781FE07204E
:1012800009B0BDE8F08F2046FFF774FC0434074630
:10129000AC632846AFF3008000283FF426AF304609
:1012A0003A460F21FFF76CFE07201FE730460D215D
:1012B000FFF744FE2862049B6B62C2E70AF101005B
:1012C00004EB8000FFF756FC0F2102463046FFF783
:1012D00057FE30462A464146FFF752FE072005E7F3
:1012E00000000000002393E6012391E602238FE62D
:1012F0002DE9F0410546C4B0042906D8DFE801F025
:101300004D2B05030900032B5FD0022044B0BDE83C
:10131000F081002BF9D1102AF7D82B68DC0600F1F8
:10132000F68022AC20460192012600F095F90023B8
:10133000A86B019A06FA03F1114203D00168043048
:1013400044F823100133042BF4D1A863204600F0A5
:1013500079F90020DAE7012B4FEA124697B254D010
:10136000052BD2D106EB0708B8F1200FCDD80F2EF0
:1013700040F29B80B846002F40F0DD80AA6B0F2E14
:10138000AA6340F2C080B8F1000F02D002A800F0BA
:101390000DF9002044B0BDE8F081002BB5D1012744
:1013A000AC6B96B2281D07FA03F1314203F1010339
:1013B00002D0216804340160102B00F10400F2D146
:1013C00012F40050E5D1AC63A0E7160C97B2F31904
:1013D000102B9AD82B681A075FD422AC204600F055
:1013E0000FF904EBC601A86B4FB1034600EBC70031
:1013F0001A680433834241F8042BF9D11846A863D4
:10140000204600F0DBF8002080E7F219102A3FF6B2
:101410007CAF0F2E3FF679AF2A68D10708D5284652
:1014200022F0030240F8482B019300F0B3F8019B2F
:1014300022AC2046019300F0ADF8A96B019B002F70
:1014400000F095804FF000087A0004EBC604043CDD
:1014500001EB820251F8040B914244F8040FF9D1D8
:10146000B8F1000F0FD002AC102E314638BF10215A
:1014700004EBC101843902EBC80452F8040B944216
:1014800041F8040FF9D1012B7FF479AF22AC04327B
:10149000AA63204600F07AF87BE723F008032B606C
:1014A00005F5A87000F0ACF897E7B8F1100F2A68BE
:1014B00043D9D007A8F110080BD5284622F0010225
:1014C00042F0020240F8482B019300F06BF82A68C2
:1014D000019B510725D40F2E04D822A8019300F0B8
:1014E00061F8019B02AC2046019300F063F8C6F15D
:1014F00010000028AA6B019BB6DD22AC114604EB5C
:10150000C6044200A3E722A800F048F83BE723F016
:1015100010032B6005F5E870019200F09DF8019A28
:10152000FFE6284622F0040240F8D02B019300F099
:1015300041F8019BCFE72A68CBE7D0070AD52846B8
:1015400022F0010242F0020240F8482B019300F021
:1015500029F8019B22AC20460193B84600F022F8FE
:10156000A96B019B002F7FF46DAF0A4607E70A467F
:101570008DE700BF00F1340191E838009C46A64693
:101580004CF8045D90E8FF0FE54600BD90EC210BA0
:10159000704700BF80EC210B704700BF90EC200B20
:1015A000704700BF80EC200B704700BFD0EC200BD1
:1015B000704700BFC0EC200B704700BFF0EC020189
:1015C000F0EC0211F0EC0221F0EC0231F0EC0241FF
:1015D000F0EC0251F0EC0261F0EC0271F0EC0281EF
:1015E000F0EC0291F0EC02A1F0EC02B1F0EC02C1DF
:1015F000F0EC02D1F0EC02E1F0EC02F1704700BF38
:10160000E0EC0201E0EC0211E0EC0221E0EC02313E
:10161000E0EC0241E0EC0251E0EC0261E0EC02712E
:10162000E0EC0281E0EC0291E0EC02A1E0EC02B11E
:10163000E0EC02C1E0EC02D1E0EC02E1E0EC02F10E
:10164000704700BFB0FC0181B0FC0191B0FC01A16A
:10165000B0FC01B1704700BFA0FC0181A0FC01916A
:10166000A0FC01A1A0FC01B1704700BFEC4600B591
:101670002DE900502DE9FF1F4FF000032DE90C006C
:1016800001A9FFF7D7FBDDF840E012B0704700BFBB
:10169000EC4600B52DE900502DE9FF1F4FF0000387
:1016A0002DE90C0001A9FFF7FFFBDDF840E012B0C7
:1016B000704700BFEC4600B52DE900502DE9FF1F33
:1016C0004FF000032DE90C0001A9FFF70FFCDDF836
:1016D00040E012B0704700BFEC4600B52DE9005065
:1016E0002DE9FF1F4FF000032DE90C0001ABFFF7C0
:1016F000D1FBDDF840E012B0704700BFEC4600B50A
:101700002DE900502DE9FF1F4FF000032DE90C00DB
:1017100001AAFFF743FCDDF840E012B0704700BFBC
:10172000027A7AB9437AA3B103214268013B10B42B
:1017300043721368141D01721A024460026010BCE7
:10174000180E70470368013A02721A020260180EFE
:101750007047B020704700BF002300B585B003AAD2
:10176000009219460C22FFF7D3FB039805B05DF8F1
:1017700004FB00BFF0E700BF2DE9F04305460E462D
:101780004FF0000885B03046FFF7CAFFB028044686
:1017900000F0B080070620D500F0F003802B65D064
:1017A000902B36D0A02B78D0B02B47D0C02B00F098
:1017B000898000F0F803D02B0BD100F00702013232
:1017C00042F40022052301212846FFF791FD00285D
:1017D000D9D0092005B0BDE8F08300230DF10C0934
:1017E00019468700CDF800900D222846FFF790FBA0
:1017F000FFB2039B043760064CBFDF1BFF180023BA
:10180000CDF8009019460D2228460397FFF7A2FB5A
:10181000B9E700F00D030D2BDBD0002303AF00F080
:101820000F02194600972846FFF772FB0023009726
:1018300019460D222846FFF78DFBA4E7B1285ED09C
:10184000B22800F0CB80B3287DD000F0FC03B42B8D
:10185000BFD0012300F007021A4442F400221946C7
:101860002846FFF745FD00288DD0B2E73046FFF748
:1018700057FF24020443B4F5004FAAD000232401EB
:10188000A2B219462846FFF733FD0028A1D114F46F
:10189000004F18BF4FF0010875E7C3434FF47F6254
:1018A00003F007031A410023010702F47F6248BFD7
:1018B00042F4804219462846FFF71AFD00283FF4FB
:1018C00062AF86E7C62851D0C7285AD000F0F80387
:1018D000C02B69D0C82875D0C9287FF47AAF3046AC
:1018E000FFF71EFF020300F00F0002F47022013028
:1018F000024367E7B8F1000F14D000206AE73046D2
:10190000FFF70EFF00283FF464AF10F0F0037FF400
:1019100060AF024619462846FFF7EAFC00283FF46C
:1019200032AF56E703AC43460E22414600942846A8
:10193000FFF7EEFA0094284643460F224146FFF790
:1019400009FB404646E73046FFF7EAFE0123010364
:1019500000F00F0001F47021C2180A43284619460E
:10196000FFF7C6FC00283FF40EAF32E73046FFF722
:10197000D7FE010300F00F00032301F47021421C85
:10198000EBE73046FFF7CCFE024600283FF421AFDC
:1019900010F0F0037FF41DAF04212846FFF7A8FCE8
:1019A00000283FF4F0AE14E7032300F00F020132E9
:1019B00042F4202219462846FFF79AFC00283FF4FB
:1019C000E2AE06E73046FFF7ABFE00F0F00200F0B3
:1019D0000F031032013343EA0232F3E600230DF124
:1019E0000C090D221946CDF800902846FFF790FA11
:1019F0003046FFF795FE02064FF002070CD5039B19
:101A000000F07F00B840034430460393FFF788FEA0
:101A1000030607F10707F2D40023039A00F07F04BE
:101A2000BC4002F501721444CDF8009019460D2215
:101A300028460394FFF78EFAA5E600BF30B50324CD
:101A40000D46C36C85B05A688DF80C40DC791202E3
:101A5000083301A9284601928DF80D400293FFF743
:101A60008BFE05B030BD00BF08B5FFF783FE806C6C
:101A700008BD00BF08B5FFF77DFEC06CC37900EB61
:101A80008300083008BD00BF08B504F02CF900BF82
:101A900008B5FFF7F9FF00BF08B50948094B036017
:101AA000094B436000238360C3604FF480420261AE
:101AB00043618361C361036200F026FC08BD00BF7F
:101AC000F801002000580040A08601000268134B76
:101AD0009A4200D0704710B586B0114CA36943F00C
:101AE0000803A361A36903F008030093009B4FF46C
:101AF00040630293122303930323059302A9094829
:101B000000F012FBE36943F48003E361E36903F44B
:101B100080030193019B06B010BD00BF0058004038
:101B200000100240000C0140012800D070474FF621
:101B3000FF739942FAD130B587B0124B124C1C603A
:101B40004FF400759D80114B9A6942F008029A612A
:101B50009B6903F008030193019B0022294620465C
:101B600000F0CCFB0295012303930223049303238B
:101B7000059302A9204600F0D7FA054B054A1A60E2
:101B800007B030BD4C020020000C014000100240A4
:101B900054020020A80300200EB410B583B0044600
:101BA00005AB53F8042B01934FF48071043002F01D
:101BB00039F8C4F80401B0F5807F03DD4FF4807379
:101BC000C4F80431214651F8040B40F6FF73B4F811
:101BD000042101F029F903B0BDE8104003B07047BB
:101BE000F0B5B5B00024264B9B79002B40D1244B97
:101BF00001229A71224B9A799988186800F07EFB2D
:101C0000642000F0D1F81F4801F0D8FF1E4E1F4994
:101C10003046FFF7C1FF2046FEF786FF0746204605
:101C2000FEF702FC04460D4602460B4639461848AC
:101C300001F050FFCDE900453A4616493046FFF71E
:101C4000ABFF0DA3D3E9002320462946FEF78EFA09
:101C5000FEF71AFF0446C62202A90F4801F052F906
:101C60000028C0D102AA0D493046FFF795FFBAE718
:101C7000034B00229A71BDE78DEDB5A0F7C6B03ECB
:101C80004C0200203C5E0008540200204C5E00081C
:101C90005C5E00087C5E0008A80300209C5E0008D3
:101CA00008B500F05DF800F025FC4FF47A3001F043
:101CB0007DFAFFF7F1FEFFF793FF08B54FF6FF71CE
:101CC0000120FFF731FF08BD002103E00B4B5B58FB
:101CD000435004310A480B4B42189A42F6D30A4A41
:101CE00002E0002342F8043B084B9A42F9D301F08A
:101CF000C7F901F073FAFFF7D3FF70474464000897
:101D000000000020DC010020DC010020F80300209E
:101D1000FEE7000010B504460E4B18784FF47A73B6
:101D2000B3FBF0F30C4A1068B0FBF3F000F0A2F83C
:101D300068B90F2C01D901200AE0002221464FF09A
:101D4000FF3000F057F8054B1C60002000E0012038
:101D500010BD00BF0000002008000020040000208B
:101D600008B5074A136843F010031360032000F01E
:101D70002FF80020FFF7CEFF00F074FB002008BD15
:101D800000200240034A1168034B1B780B44136088
:101D9000704700BF6003002000000020014B18685E
:101DA000704700BF6003002038B50446FFF7F6FF18
:101DB0000546B4F1FF3F02D0044B1B781C44FFF7EB
:101DC000EDFF401BA042FAD338BD00BF0000002049
:101DD000074AD36823F4E0631B041B0C000200F4E1
:101DE000E060184340F0BF6040F40030D0607047BE
:101DF00000ED00E030B4174BDB68C3F30223C3F1FE
:101E00000704042C28BF04241D1D062D18D9033BEC
:101E10004FF0FF3505FA04F421EA0401994005FA70
:101E200003F322EA0303194300280BDB0901C9B2BB
:101E300000F1604000F5614080F8001330BC70474D
:101E40000023E5E700F00F000901C9B2024B195465
:101E5000F4E700BF00ED00E014ED00E000F01F0229
:101E6000400901239340024A42F82030704700BFE6
:101E700000E100E00138B0F1807F0AD2064B5860E3
:101E8000064AF02182F823100020986007221A6089
:101E900070470120704700BF10E000E000ED00E057
:101EA000042805D0054A136823F004031360704723
:101EB000024A136843F004031360704710E000E027
:101EC000704708B5FFF7FCFF08BD70B4066CC56B22
:101ED0000124B4406C60046863604368102B05D033
:101EE000036899600368DA6070BC704703689A60A1
:101EF0000368D960F8E70000002830D010B403462A
:101F00000168184A0A441848A0FB0202120992000C
:101F10001A64164ADA63022283F82120086820F442
:101F20007F5020F030005A689C682243DC682243CE
:101F30001C6922435C6922439C692243DC69224379
:101F400002430A6000209862D8621863586398635D
:101F5000012283F8212083F8200010BC7047012063
:101F6000704700BFF8FFFDBFCDCCCCCC00000240D5
:101F700038B590F82040012C32D0012480F8204060
:101F800090F82140012C04D0002380F8203002205A
:101F900038BD0446022084F821000020A063256893
:101FA000286820F0010028602046FFF78EFFE36AD2
:101FB0005BB12268136843F00E0313602268136854
:101FC00043F0010313600020E2E72268136823F066
:101FD000040313602268136843F00A031360EDE7FB
:101FE0000220D5E738B5C36B1A6804682568016C10
:101FF00004238B40134235D015F0040F32D02368F0
:1020000013F0200F03D1236823F004032360036837
:10201000434A934214D01432934218D0143293425C
:1020200017D01432934217D01432934217D014327F
:10203000934202D04FF0806203E04FF4800200E050
:102040000422384B5A60C36A03B1984738BD402216
:10205000F7E74FF48062F4E74FF48042F1E74FF482
:102060008022EEE702238B4013423CD015F0020F92
:1020700039D0236813F0200F06D1236823F00A0318
:102080002360012380F821300368254A934214D04D
:10209000143293421CD0143293421BD01432934218
:1020A0001BD0143293421BD01432934202D04FF013
:1020B000007203E04FF4001200E00222194B5A6054
:1020C000002380F82030836A002BBFD09847BDE7FB
:1020D0002022F3E74FF40072F0E74FF40052EDE7EF
:1020E0004FF40032EAE7082303FA01F11142ADD0C0
:1020F00015F0080FAAD0236823F00E032360026CAA
:10210000C16B012303FA02F24A60836380F8213035
:10211000002380F82030036B002B97D0984795E779
:102120000800024000000240F0B482B000263546AC
:10213000A1E0002C59D0012C00D1CE68FF2B68D82B
:102140008446FF2B68D8AC00DCF800200F27A7409E
:1021500022EA070206FA04F42243CCF800204A6877
:1021600012F0805F00F086805E4A946944F00104BA
:102170009461926902F001020192019AAC08A71CD5
:10218000594A52F8272005F00307BF004FF00F0C03
:102190000CFA07FC22EA0C0C544A904242D002F599
:1021A000806290427FD002F5806290427DD002F53D
:1021B0008062904234D0042235E04D4FBC4214D0AE
:1021C0000BD94C4FBC4210D007F58037BC420CD025
:1021D000A7F58017BC42B1D107E0A7F58017BC4234
:1021E00003D007F58037BC42A8D18C687CB1012CA4
:1021F00008D042610826A1E7CE6808369EE7CE687F
:102200000C369BE70261082698E7002696E704262D
:1022100094E700F1040C94E7A5F10804A40093E707
:10222000032200E00022BA4042EA0C0202342E4FA0
:1022300047F824204A6812F4803F38D02E4C226898
:102240001A4322604A6812F4003F36D02A4C626872
:102250001A4362604A6812F4801F34D0264CA26888
:102260001A43A2604A6812F4001F32D0224CE2687E
:102270001343E36001350F2D31D80122AA400B68CA
:1022800013409A42F6D14C68122CB8D095D8022C43
:10229000B2D07FF64EAF032CB7D0112C7FF44EAFE7
:1022A000CE6804364AE70122BDE70222BBE7124CA2
:1022B000226822EA03022260C4E70F4C626822EA25
:1022C00003026260C6E70C4CA26822EA0302A26025
:1022D000C8E7094CE26822EA0303E360CAE702B0F8
:1022E000F0BC7047001002400000014000080140AF
:1022F00000002110000031100004014012B909044F
:102300000161704701617047002800F09C8038B57A
:10231000044690F83D30002B4FD0242384F83D3004
:102320002268136823F00103136000F00DFC62685B
:10233000474B9A4246D8474B98428CBF0023012313
:10234000002B40F08280444BA3FB00239B0C2268AF
:10235000536061683E4A91423AD801332268136261
:1023600062683B4B9A423DD8431E5200B3FBF2F3E6
:102370000133C3F30B03042B38BF04232268D3615A
:10238000E369216A22680B4313602369E1682268CC
:102390000B4393606369A16922680B43D360226891
:1023A000136843F00103136000202064202384F8A5
:1023B0003D30206384F83E0038BD80F83C30FFF7A4
:1023C00085FBAAE7254B98428CBF00230123B7E782
:1023D0004FF4967202FB03F3214AA2FB03239B09ED
:1023E0000133BBE7A168A1B9431E02EB4205B3FB71
:1023F000F5F30133C3F30B031BB3A9B9013802EBA7
:102400004203B0FBF3F30133C3F30B0343F4004384
:10241000B4E7431E02EB820505EB8505B3FBF5F33C
:102420000133C3F30B03E7E7013802EB820303EB4D
:102430008303B0FBF3F30133C3F30B0343F44043D3
:102440009CE701239AE7012070470120B4E700BF11
:10245000A08601007F841E0083DE1B43FF083D0031
:10246000D34D621000B583B0204B9A6942F001024F
:102470009A619B6903F001030193019B0320FFF71D
:10248000A7FC002211466FF00B00FFF7B3FC0022FF
:1024900011466FF00A00FFF7ADFC002211466FF005
:1024A0000900FFF7A7FC002211466FF00400FFF7B8
:1024B000A1FC002211466FF00300FFF79BFC0022F5
:1024C00011466FF00100FFF795FC002211464FF016
:1024D000FF30FFF78FFC064A536823F0E06343F0B8
:1024E0000073536003B05DF804FB00BF00100240AE
:1024F0000000014010B590B00223069301230A9317
:1025000010230B9300240D9406A800F035F80F2338
:1025100001930294039404940594214601A800F0C9
:1025200051FA00F00BFB084BA3FB00308009FFF7CA
:10253000A1FC0420FFF7B4FC224621464FF0FF30F7
:10254000FFF758FC10B010BDD34D621082B0084B9D
:102550001B68084AA2FB03235B0A00FB03F00190FF
:1025600000BF019B5A1E0192002BF9D102B07047A7
:1025700008000020D34D621070B582B00446036895
:1025800013F0010F2CD0AB4B5B6803F00C03042B52
:102590001DD0A84B5B6803F00C03082B12D06368B6
:1025A000B3F5803F41D0002B55D103F1804303F5B3
:1025B00004331A6822F480321A601A6822F48022E6
:1025C0001A6037E09B4B5B6813F4803FE7D0994B70
:1025D0001B6813F4003F03D06368002B00F0AA814E
:1025E000236813F0020F76D0924B5B6813F00C0F48
:1025F0005FD0904B5B6803F00C03082B54D0236929
:10260000002B40F081808C4B00221A60FFF7C6FB44
:102610000546884B1B6813F0020F5CD0FFF7BEFB2A
:10262000401B0228F5D9032087E1824A136843F44E
:1026300080331360636843B3FFF7B0FB05467D4BFF
:102640001B6813F4003FCBD1FFF7A8FB401B6428A5
:10265000F5D9032071E1B3F5A02F09D0754B1A68A5
:1026600022F480321A601A6822F480221A60E1E7AC
:1026700003F18043A3F53C331A6842F480221A60C8
:102680001A6842F480321A60D4E7FFF787FB0546E8
:10269000684B1B6813F4003FA2D0FFF77FFB401B81
:1026A0006428F5D9032048E1624B5B6813F4803F4E
:1026B000A5D1604B1B6813F0020F04D02369012BD6
:1026C00001D0012039E15B4A136823F0F803616906
:1026D00043EAC1031360236813F0080F32D0A369E3
:1026E000002B5BD0554B01221A60FFF757FB0546C4
:1026F000504B5B6A13F0020F21D1FFF74FFB401BD9
:102700000228F5D9032018E14B4B01221A60FFF78C
:1027100045FB0546474B1B6813F0020F06D1FFF738
:102720003DFB401B0228F5D9032006E1414A13680E
:1027300023F0F803616943EAC1031360CBE701208A
:10274000FFF704FF236813F0040F00F09780394B64
:10275000DB6913F0805F33D1364BDA6942F0805287
:10276000DA61DB6903F080530193019B0125344B4F
:102770001B6813F4807F25D0E368012B36D0002B33
:102780004CD103F1804303F504331A6A22F00102AD
:102790001A621A6A22F004021A622CE0274B002205
:1027A0001A60FFF7FBFA0546224B5B6A13F0020F33
:1027B000C8D0FFF7F3FA401B0228F5D90320BCE08C
:1027C0000025D4E71E4A136843F480731360FFF7B3
:1027D000E5FA06461A4B1B6813F4807FCCD1FFF74D
:1027E000DDFA801B6428F5D90320A6E0114A136A9C
:1027F00043F001031362E36873B3FFF7CFFA0646B1
:102800000C4B1B6A13F0020F37D1FFF7C7FA801B7E
:1028100041F288339842F3D903208EE0052B11D082
:10282000044B1A6A22F001021A621A6A22F00402A8
:102830001A62E0E700100240000042428004424277
:1028400000700040414B1A6A42F004021A621A6A90
:1028500042F001021A62CEE7FFF7A0FA06463B4BB0
:102860001B6A13F0020F08D0FFF798FA801B41F2A1
:1028700088339842F3D903205FE0E5B9E369002B80
:102880005AD0324A526802F00C02082A57D0022B62
:1028900017D02F4B00221A60FFF780FA04462B4B0B
:1028A0001B6813F0007F4ED0FFF778FA001B022858
:1028B000F5D9032041E0254AD36923F08053D36141
:1028C000DCE7234B00221A60FFF768FA05461F4B2E
:1028D0001B6813F0007F06D0FFF760FA401B022848
:1028E000F5D9032029E0236AB3F5803F1AD01749B0
:1028F0004B6823F47413226A606A024313434B60EB
:10290000134B01221A60FFF749FA04460F4B1B686C
:1029100013F0007F15D1FFF741FA001B0228F5D90B
:1029200003200AE0094A536823F40033A1680B43EB
:102930005360DCE7012000E0002002B070BD012000
:10294000FBE70020F9E70020F7E700BF0010024096
:102950006000424210B487B0164C94E80F000DF1AD
:10296000180C0CE90F00238AADF80430124B5B6899
:1029700003F00C02082A1AD1C3F38342624412F80E
:10298000102C13F4803F05D10C4800FB02F007B077
:1029900010BC7047084B5B68C3F34043634413F8B3
:1029A000143C074800FB02F0B0FBF3F0EFE70448EB
:1029B000EDE700BF285E00080010024000093D005E
:1029C00000127A00594B1B6803F007038B420CD2AC
:1029D000564A136823F007030B431360136803F090
:1029E00007038B4201D00120704770B5036813F0D4
:1029F000020F06D04E4A536823F0F0038468234345
:102A000053600C460546036813F0010F52D043682B
:102A1000012B23D0022B28D0454A126812F0020F56
:102A200000F0828042494A6822F0030213434B605F
:102A3000FFF7B4F906466B68012B1DD0022B2AD094
:102A40003B4B5B6813F00C0F34D0FFF7A7F9801BEA
:102A500041F288339842F3D9032064E0344A126883
:102A600012F4003FDED101205DE0314A126812F01D
:102A7000007FD7D1012056E02D4B5B6803F00C039B
:102A8000042B17D0FFF78AF9801B41F28833984254
:102A9000F2D9032047E0264B5B6803F00C03082BB8
:102AA00008D0FFF77BF9801B41F288339842F2D9B6
:102AB000032038E01D4B1B6803F00703A3420CD929
:102AC0001A4A136823F0070323431360136803F0C3
:102AD0000703A34201D0012025E02B6813F0040F67
:102AE00006D0134A536823F4E063E9680B4353604C
:102AF0002B6813F0080F07D00D4A536823F4605376
:102B0000296943EAC1035360FFF724FF084B5B6860
:102B1000C3F30313074AD35CD840074B1860002067
:102B2000FFF7F8F8002070BD0120FCE7002002400C
:102B300000100240B85E000808000020014B186831
:102B4000704700BF0800002008B5FFF7F7FF044BEF
:102B50005B68C3F30223034AD35CD84008BD00BFBF
:102B600000100240C85E000808B5FFF7E7FF044BFD
:102B70005B68C3F3C223034AD35CD84008BD00BFDF
:102B800000100240C85E00080268D36823F0C0034A
:102B9000D360202380F8393070470268D36823F46B
:102BA0009073D3600268536923F0010353612023BB
:102BB00080F83A30704700002DE9F8430546026876
:102BC000136923F44053C1680B431361836802699E
:102BD0001343426913430168CA6822F4B05222F0D9
:102BE0000C021343CB600268536923F4407381697C
:102BF0000B4353610268594B9A4257D0FFF7A4FF29
:102C000000EB800000EB80006C68A400B0FBF4F4E3
:102C1000534FA7FB043464092601FFF795FF00EB2F
:102C2000800000EB80006C68A400B0FBF4F9FFF7B3
:102C30008BFF00EB800000EB80006C68A400B0FB11
:102C4000F4F4A7FB043464094FF0640808FB1494FF
:102C500024013234A7FB0434640904F0F004344442
:102C6000FFF772FF00EB800000EB80006E68B6009B
:102C7000B0FBF6F6FFF768FF00EB800000EB80008A
:102C80006B689B00B0FBF3F0A7FB0030400908FB2A
:102C900010684FEA081808F13208A7FB0837C7F395
:102CA00043172B6827449F60BDE8F883FFF75CFF5C
:102CB00000EB800000EB80006C68A400B0FBF4F433
:102CC000274FA7FB043464092601FFF74DFF00EBF3
:102CD000800000EB80006C68A400B0FBF4F9FFF703
:102CE00043FF00EB800000EB80006C68A400B0FBA9
:102CF000F4F4A7FB043464094FF0640808FB14944F
:102D000024013234A7FB0434640904F0F004344491
:102D1000FFF72AFF00EB800000EB80006E68B60032
:102D2000B0FBF6F6FFF720FF00EB800000EB800021
:102D30006B689B00B0FBF3F0A7FB0030400908FB79
:102D400010684FEA081808F13208A7FB0837C7F3E4
:102D500043172B6827449F60A6E700BF0038014057
:102D60001F85EB512DE9F04105460F461646984662
:102D7000069C05E001239E4224D1B4F1FF3F06D119
:102D80002B681B6837EA0303F4D00023F3E72CB168
:102D9000FFF704F8A0EB0800A042F1D92A68D36835
:102DA00023F4D073D3602A68536923F0010353617D
:102DB000202385F8393085F83A30002385F83830FB
:102DC000032000E00020BDE8F08158B310B50446B0
:102DD00090F839300BB3242384F839302268D36853
:102DE00023F40053D3602046FFF7E6FE2268136900
:102DF00023F4904313612268536923F02A0353613B
:102E00002268D36843F40053D3600020E06320239A
:102E100084F8393084F83A3010BD80F8383000F04A
:102E20005FF9D8E7012070472DE9F04182B01E46D6
:102E300090F83930DBB2202B53D104460D46904632
:102E4000002952D0002A52D090F83830012B50D0AF
:102E5000012380F838300023C363212380F8393000
:102E6000FEF79CFF0746A4F82480A4F8268010E013
:102E700000963B46002280212046FFF773FF002882
:102E800039D12B882268C3F3080353602369C3B97F
:102E90000235E38C9BB2B3B1E38C013B9BB2E3847C
:102EA000A368B3F5805FE3D000963B460022802103
:102EB0002046FFF757FF00BB2A7823685A60013588
:102EC000E7E70135E5E700963B4600224021204632
:102ED000FFF748FF98B9202384F8393084F8380088
:102EE00000E0022002B0BDE8F0810120FAE70120F5
:102EF000F8E70220F6E70320F4E70320F2E70320D7
:102F0000F0E7000030B583B090F83A40E4B2202CEE
:102F10003DD100293ED0002A3ED090F83830012B18
:102F20003CD013460A460446012180F838108262DC
:102F300083850025C563222180F83A10416B18482B
:102F40008862616B1748C862616B17480863616BE0
:102F50004D6321680431606BFFF70AF8019523681F
:102F60001A6801925A680192019A84F83850DA6816
:102F700042F48072DA602268536943F001035361BE
:102F80002268536943F040035361284600E0022061
:102F900003B030BD0120FBE70120F9E70220F7E78D
:102FA000AF2F0008EF2F0008FB2F0008704708B56F
:102FB000436A0268126812F0200F13D10022DA85EA
:102FC0001968CA6822F48072CA6019684A6922F0D6
:102FD00001024A6119684A6922F040024A612022CE
:102FE00083F83A201846FFF7E1FF08BD704708B59F
:102FF000406AFFF7FBFF08BD704710B5446A2368BD
:103000005A6994F83930DBB2212B10D023685A6901
:1030100002F0400294F83A30DBB2222B11D0E36B7D
:1030200043F01003E3632046FFF7E6FF10BD02F014
:103030008002002AEAD00023E3842046FFF7A4FDA3
:10304000E4E7002AEBD00023E3852046FFF7A5FD47
:10305000E5E77047FEE7FEE7FEE7FEE770477047EB
:10306000704708B5FEF78EFEFEF72BFF08BD000087
:1030700008B50248FEF7B6FF08BD00BF6403002094
:103080000F4B1A6842F001021A6059680D4A0A4053
:103090005A601A6822F0847222F480321A601A6828
:1030A00022F480221A605A6822F4FE025A604FF419
:1030B0001F029A60044B4FF000629A60704700BF95
:1030C000001002400000FFF800ED00E008B54FF4EA
:1030D0007A7392B20148FFF7A7FE08BDA80300204B
:1030E0000268214B9A4200D0704770B586B0054601
:1030F00003F558439A6942F480429A619A6902F44E
:1031000080420092009A9A6942F004029A619B6997
:1031100003F004030193019B4FF400730293022315
:10312000039303230593114C02A92046FEF7FCFFED
:103130004FF48063029300260396049602A920466A
:10314000FEF7F2FF0A4C0B4B23606660A6608023FB
:10315000E36026616661A661E6612046FEF7CCFE6B
:103160006C63656206B070BD003801400008014024
:10317000640300205800024000B583B00A4B5A692E
:1031800042F001025A615B6903F001030193019B64
:10319000002211460F20FEF72DFE0F20FEF75EFEE7
:1031A00003B05DF804FB00BF0010024010B50446F8
:1031B000FFF7E2FF0748084B036044600023836089
:1031C000C36003610C2242618361C361FFF7FDFDAF
:1031D00010BD00BFA80300200038014070B50025D5
:1031E0000C4E0D4CA41BA410A54209D102F00EFEFA
:1031F00000250A4E0A4CA41BA410A54205D170BD9F
:1032000056F8253098470135EEE756F825309847AF
:103210000135F2E7386400083864000838640008B3
:103220004064000803460244934200D1704703F80B
:10323000011BF9E7002B2DE9F0471E46BBBF03F148
:1032400000431E4600232D2388B0149FDDE9121A87
:1032500027F02007462F1446109D0B7004D0452FF1
:1032600000D10135022300E0032307AA049206AA35
:10327000CDE902A2CDE900352246334600F030FE0A
:10328000472F804602D1119BDB0726D5462F08EB3E
:10329000050911D198F80030302B0AD10022002303
:1032A00020463146FDF780FB18B9C5F10105CAF883
:1032B0000050DAF8003099440022002320463146BD
:1032C000FDF772FB38B93022079B4B4505D2591CDC
:1032D00007911A70F8E7CDF81C904046079B159AA5
:1032E000A3EB0803136008B0BDE8F087F7B5002929
:1032F000B4BF2D232B230446B8BF4942092904F843
:10330000022B437021DD0DF107031F460A2691FBB6
:10331000F6F506FB1511092D01F1300103F8011C2A
:1033200003F1FF32294609DC3031023B02F8011C6F
:10333000BB42224604D3101A03B0F0BD1346E6E7A1
:1033400013F8012B04F8012BF2E7302319448370A2
:10335000021DC170EFE700002DE9F04F91B00C465F
:103360001A9F93461E46054601F0E8FC036818467E
:103370000993FCF7EDFE00230E933B680A90073398
:1033800023F0070303F1080294F81880D4F800A092
:103390003A60D3E90023C4E91223D4E9127929F071
:1033A00000430B934FF0FF32A64B38460B99FDF7C5
:1033B0002DFB68BB4FF0FF32A24B38460B99FDF74F
:1033C00007FB28BB0022002338464946FDF7F6FAE2
:1033D00010B12D2384F843309B4F9C4BB8F1470F1D
:1033E00098BF1F4603234FF0000923612AF004030E
:1033F000236000965B460FAA2146284600F0E2F9BA
:10340000013040F090804FF0FF3011B0BDE8F08FF8
:103410003A464B4638464946FDF7F8FA10B18C4F0C
:103420008C4BDBE763684AF48062591C0DA80EA937
:1034300040D1062363604FF0000C0DF13303CDE95A
:10344000012363682260CDE9030800933A464B46A6
:10345000CDE9051C2846FFF7EDFE08F0DF03472BFA
:10346000074609D10D9BD81C02DB6268934247DDF9
:10347000A8F102085FFA88F8B8F1650F0D9924D811
:103480000139424604F150000D91FFF72FFF0E9ACB
:1034900081461318012A236102DC2268D10701D575
:1034A000013323619DF83330002BA2D02D2384F803
:1034B00043309EE7B8F1670F00F06E81B8F1470F17
:1034C000B9D1002BB7D10123B4E7B8F1660F19D1F8
:1034D000002963680CDD216113B92268D20702D587
:1034E00001330B4423610D9B4FF00009A365D9E71D
:1034F00013B92268D00701D50233F3E70123F1E7BE
:103500004FF06708DDE90D32934205DB2268236145
:10351000D107E8D50133E5E7002BCCBF0123C3F188
:1035200002031344DEE723685A0507D423693A46A9
:1035300059462846B047013029D164E7B8F1650FF4
:1035400040F2D780D4E9120100220023FDF72CFAC3
:1035500088B30123404A59462846B04701303FF41A
:1035600052AFDDE90D239A4202DB2368D8070ED55E
:10357000DDE9092359462846B04701303FF443AFFF
:10358000002704F11A080E9B013BBB4209DC2368AB
:103590009F0700F1FD80E0680F9B9842B8BF184676
:1035A00033E70123424659462846B04701303FF4ED
:1035B0002AAF0137E7E70D9B002B2BDC0123264ABE
:1035C00059462846B04701303FF41DAF0D9B23B943
:1035D0000E9B13B92368D907D9D5DDE909235946CC
:1035E0002846B04701303FF40EAF4FF0000804F119
:1035F0001A090D9B5B42434501DC0E9B97E70123B3
:103600004A4659462846B04701303FF4FCAE08F11F
:103610000108EEE70E9AA36D9A42A8BF1A46002A47
:10362000904607DD134659463A462846B0470130D2
:103630003FF4E9AE04F11A034FF0000A28EAE878F3
:103640000B9315E0FFFFEF7FD85E0008D45E000803
:10365000E05E0008DC5E0008E45E000801230B9ACF
:1036600059462846B04701303FF4CDAE0AF1010A71
:10367000D4F85890A9EB08035345EFDCDDE90D239E
:103680009A424F4414DB2368DA0711D40E9B0D993C
:10369000A3EB0902A3EB01099145A8BF9146B9F13B
:1036A000000F0DDC002729EAE97904F11A0818E077
:1036B000DDE9092359462846B0470130E6D1A2E6A4
:1036C0004B463A4659462846B0470130EAD19AE679
:1036D0000123424659462846B04701303FF493AE95
:1036E0000137DDE90D239B1AA3EB0903BB42EFDC95
:1036F0004DE70E9A012A01DCDB0738D501233A4653
:1037000059462846B04701303FF47DAEDDE9092334
:1037100059462846B047013007F101073FF473AE20
:10372000D4E912010E9B002203F1FF380023FDF7BC
:103730003BF9C0B943463A4659462846B04701309E
:103740000DD160E60123424659462846B047013074
:103750003FF459AE01370E9B013BBB42F2DC4B46B6
:1037600004F15002E4E6002704F11A08F3E701230C
:10377000E1E70123424659462846B04701303FF46D
:1037800042AE0137E3680F9A9B1ABB42F1DC02E7B5
:10379000002704F11908F5E7002B3FF494AE4FF031
:1037A000000CCDE9051C0DF133012260CDE90308C1
:1037B000CDE9012100933A464B462846FFF73AFDF2
:1037C00007464FE62DE9F04791461F468A680B6988
:1037D00006469342B8BF1346C9F8003091F843201B
:1037E0000C46DDF8208012B10133C9F8003023689F
:1037F000990642BFD9F800300233C9F80030256875
:1038000015F0060507D104F1190AE368D9F800207C
:103810009B1AAB4229DC94F843302268003318BF6E
:10382000012392062ED404F1430239463046C047A4
:10383000013021D02368E56803F00603042B18BF8C
:103840000025D9F800204FF0000908BFAD1AA36881
:10385000226908BF25EAE5759342C4BF9B1AED189B
:103860001A344D451AD1002008E00123524639464A
:103870003046C047013003D14FF0FF30BDE8F0873C
:103880000135C2E73020E11881F843005A1C94F852
:1038900045102244023382F84310C4E70123224634
:1038A00039463046C0470130E6D009F10109D8E772
:1038B0002DE9F04301F1430C0C46097E85B06E29D9
:1038C0001746064698460C9A00F0B38022D8632922
:1038D00036D00AD8002900F0B980582900F083803A
:1038E00004F1420584F8421032E0642901D06929CC
:1038F000F6D120681368050603F104012AD51B6878
:103900001160002B03DA2D225B4284F843206F48BC
:103910000A2239E0732900F09D8008D86F2920D051
:103920007029DDD1236843F02003236003E075296B
:1039300017D07829D4D17823654884F8453055E0EC
:10394000136804F14205191D1B68116084F84230A8
:1039500001238CE01B6810F0400F116018BF1BB2F0
:10396000CFE713682568181D1060280601D51B686D
:1039700002E06806FBD51B886F2914BF0A220822C3
:103980005248002184F843106568002DA560C0F2FC
:103990009580216821F004012160002B3DD1002D8C
:1039A00040F08E806546082A0BD12368DB0708D5D6
:1039B000236962689A42DEBF302305F8013C05F1B5
:1039C000FF35ACEB05032361CDF800803B4603AA2D
:1039D00021463046FFF7F6FE01304DD14FF0FF3063
:1039E00005B0BDE8F083394884F8451013682168B4
:1039F0001D1D1B6815600A060BD5CA0744BF41F0A0
:103A0000200121601BB9226822F0200222601022CE
:103A1000B7E74D0648BF9BB2EFE76546B3FBF2F14F
:103A200002FB1133C35C05F8013D0B460029F5D1BB
:103A3000B9E713682568181D6169106028061B68BE
:103A400001D5196002E06A06FBD51980002365469E
:103A50002361B9E71368191D11601D6862680021B0
:103A6000284601F0E5F908B1401B606063682361F6
:103A7000002384F84330A7E723692A4639463046B5
:103A8000C0470130AAD023689B0713D4E068039B8A
:103A90009842B8BF1846A3E701234A463946304644
:103AA000C04701309AD00135E368039A9B1AAB42B4
:103AB000F2DCEBE7002504F11909F5E7002BACD1A6
:103AC000037804F1420584F842306CE7E65E0008B2
:103AD000F75E00080FB40A4B13B51C6824B1A36944
:103AE00013B9204601F0A0F805AB049AA16820465E
:103AF000019301F0BFFE02B0BDE8104004B0704772
:103B00000C00002070B50E46054618B183690BB94C
:103B100001F08AF8AB69AC6813B9284601F084F863
:103B2000234B9C4217D16C68A3891B071DD52369C1
:103B3000DBB1013EA36816F8011F013BA360E9B9A0
:103B4000002B2EDA22460A21284600F079F80130AF
:103B500011D00A2011E0174B9C4201D1AC68E3E779
:103B6000154B9C4208BFEC68DEE72146284600F072
:103B7000B9F80028DDD04FF0FF3070BD002B04DA1B
:103B8000A2699A4206DC0A2904D023685A1C2260E2
:103B90001970CFE72246284600F052F80130C9D10B
:103BA000E9E70A2023685A1C22601870E5E700BF85
:103BB000385F0008585F0008185F0008024B014694
:103BC0001868FFF79FBF00BF0C00002030B5141E1F
:103BD00005469BB0184605DA8B234FF0FF302B606B
:103BE0001BB030BD4FF40273ADF80C300CBF234650
:103BF00004F1FF33029305934FF6FF730091049194
:103C0000ADF80E3002461E9B6946284601F014FDB1
:103C1000431CBCBF8B232B60002CE1D00022009BF7
:103C20001A70DDE707B5009313460A4601460348BC
:103C30000068FFF7CBFF03B05DF804FB0C00002029
:103C4000F8B50E461446054618B183690BB900F065
:103C5000EBFF214B9C422AD16C68A369A360A38926
:103C60001A072ED5236963B323692068F6B2C01AF8
:103C700063693746834204DC2146284600F06AFF28
:103C800028BBA3680130013BA36023685A1C226053
:103C90001E706369834204D0A389DB0719D50A2EFD
:103CA00017D12146284600F055FF90B10FE00B4B8D
:103CB0009C4201D1AC68D0E7094B9C4208BFEC683C
:103CC000CBE72146284600F00DF80028CCD04FF075
:103CD000FF373846F8BD00BF385F0008585F00085E
:103CE000185F0008324B70B51D6806460C4625B1BA
:103CF000AB6913B9284600F097FF2E4B9C420FD1B9
:103D00006C68B4F90C309AB215072CD4D00611D4D3
:103D10000922326043F04003A3814FF0FF303EE0C0
:103D2000254B9C4201D1AC68EBE7244B9C4208BF79
:103D3000EC68E6E7510712D5616B41B104F1440329
:103D4000994202D0304601F077FB00236363A389D8
:103D500023F02403A3810023636023692360A389E4
:103D600043F00803A38123694BB9A38903F42073AB
:103D7000B3F5007F03D02146304601F011F8A28947
:103D800012F001030CD00023A36063695B42A361BE
:103D9000236953B9B4F90C3013F08000BAD170BD67
:103DA000920758BF6369A360F2E70020F7E700BFFE
:103DB0000C000020385F0008585F0008185F0008FA
:103DC0002DE9F74F03690C698046A342C0F2848055
:103DD000013C01F1140700F1140657F8245056F87D
:103DE00024000135B0FBF5F54FEA840C06EB0C031B
:103DF00007EB0C0901939DB34FF0000A3846B64615
:103E0000D34650F8042B93B205FB03A3120C4FEAE0
:103E1000134A05FB02A29BB2ABEB0303DEF800B032
:103E20004FEA124A1FFA8BFB5B441FFA82FBDEF853
:103E300000208145CBEB124202EB23429BB243EAC6
:103E400002434FEA224B4EF8043BDAD256F80C30CC
:103E500033B9019B043B9E421A4631D3C8F8104047
:103E6000404601F013FA002826DB30464FF0000CE4
:103E7000013557F8041BD0F800E08BB2ACEB03031C
:103E80001FFA8EF213440A0CC2EB1E4202EB2342CD
:103E90009BB243EA0243B9454FEA224C40F8043B47
:103EA000E7D256F8242006EB84032AB9043B9E424D
:103EB0001A460BD3C8F81040284603B0BDE8F08F6F
:103EC0001268043B002AC9D1013CC4E71268043BD4
:103ED000002AEFD1013CEAE70020EEE700000000F5
:103EE0002DE9F04F16461F46456A95B00446DDF8A9
:103EF0008480CDE902673DB9102000F091FF606237
:103F0000C0E901550560C560636A196851B15A6816
:103F1000012393404A608B60204600F0D6FF0022C8
:103F2000636A1A603B1EAFBF0023012223F00043E7
:103F30000393ACBFC8F80030C8F80020AE4BDDF8E2
:103F40000C8033EA08031BD142F20F73209A1360EE
:103F5000029B23B9C8F31300002800F04585229B7B
:103F600053B9A64B21E0A64B06930833229A13605F
:103F7000069815B0BDE8F08FA04B06930333F5E724
:103F8000DDE902670022002330463946FCF70CFDCC
:103F9000824660B10123209A1360229B002B00F01F
:103FA0002085984B229A1360013B0693E0E712AB01
:103FB000019313AB009332463B46204601F0DEF9F5
:103FC000C8F30A558346002D7DD0B046C7F31303CE
:103FD00043F07F5949F44019A5F2FF35CDF840A0D0
:103FE0000022894B40464946FCF7BEF87CA3D3E942
:103FF0000023FCF771FA7CA3D3E90023FCF7B6F8A1
:10400000064628460F46FCF7FDF979A3D3E90023BD
:10401000FCF762FA02460B4630463946FCF7A6F832
:1040200006460F46FCF708FD002282460023304674
:104030003946FCF7C3FC48B15046FCF7E3F9324679
:104040003B46FCF7B1FC08B90AF1FF3ABAF1160F8A
:104050005AD8DDE902236D4901EBCA01D1E900011B
:10406000FCF7CAFC002851D000230AF1FF3A0D9357
:10407000129B5D1B6B1E079343BF0023C5F1010913
:1040800007934FF00009BAF1000F41DB079BCDF811
:1040900030A053440793002308931E9B092B00F282
:1040A0008F80052BC4BF043B1E931E9BC8BF0025F9
:1040B000A3F10203D8BF0125032B00F28D80DFE8B6
:1040C00003F07B7D2F6FDDE912531D4405F2324072
:1040D000202813DDC0F14000029B08FA00F805F229
:1040E000124023FA00F048EA0000FCF77BF90123B4
:1040F0008046A1F1F879013D109371E7029BC0F170
:10410000200003FA00F0F0E70123B0E70D90AFE7DD
:10411000CAF1000308930023A9EB0A090C93BCE73A
:10412000012309931F9B002B74DD98460493002202
:10413000666A7260042202F11400984271686ED9B6
:10414000204600F08EFE636A30601B68B8F10E0FE7
:10415000069300F2ED80002D00F0EA80DDE90223F5
:10416000BAF1000FCDE90E2377DD284A0AF00F03DC
:104170004FEA2A1602EBC303F006D3E90023CDE988
:104180000A2368D5DDE90E01214B0325D3E9082375
:10419000FCF7CCFACDE9020106F00F061C4F4FE008
:1041A000012309931F9B534403F1010804934346E1
:1041B000012BB8BF0123BAE70023B2E70023F0E7E1
:1041C0000125002309951E934FF0FF33002204932D
:1041D000984612231F92AAE701230993F4E700BF30
:1041E00061436F63A787D23FB3C8608B288AC63FFD
:1041F000FB799F501344D33F0000F07F115F00080C
:10420000085F0008E55E00080000F83FA05F0008B6
:10421000785F00080123049398461A46DAE70131D3
:104220007160520087E7F10708D5DDE90A01D7E997
:104230000023FCF751F9CDE90A0101357610083762
:10424000002EF0D1DDE90A23DDE90201FCF76EFA68
:10425000CDE902011BE00225A0E700F0A480DDE922
:104260000E01CAF10006A04B06F00F0203EBC203D9
:10427000D3E90023FCF730F902250023CDE9020140
:104280009A4F3611002E40F08380002BE0D10D9B19
:10429000002B00F08A80DDE90223CDE90A23DDE965
:1042A0000A010022924BFCF789FB00287DD0B8F16F
:1042B000000F7AD0049B002B36DDDDE90A010022D5
:1042C0008C4BFCF709F9CDE90201049E0AF1FF3796
:1042D00001352846FCF796F8DDE90223FCF7FCF8E7
:1042E0000022854BFBF742FFA1F15075CDE90A0191
:1042F0000B95002E5CD1DDE9020100227F4BFBF71C
:1043000033FF0A9A2B46CDE90201FCF775FB002822
:1043100040F08182DDE902010A9A05F10043FCF7D1
:104320004DFB002840F07582DDE90E23CDE9022324
:10433000139B002BC0F24B81BAF10E0F00F34781A3
:10434000694B03EBCA03D3E90023CDE904231F9B88
:10435000002B80F2D780B8F1000F00F3D38040F03B
:104360005782DDE904010022644BFCF7B5F8DDE972
:104370000223FCF737FB46464746002840F02D82D3
:10438000069B069A5D1C31230AF1010A137028E28C
:10439000F20705D5D7E90023FCF79EF80123013584
:1043A000761008376EE7022571E75746464690E7D4
:1043B0004D4B03EBC60353E90201099B002B48D088
:1043C00002460B4600204E49FCF7B0F9DDE90A230E
:1043D000FBF7CAFECDE90A01069DDDE90201FCF703
:1043E0002BFB1190FCF70EF802460B46DDE90201AB
:1043F000FBF7BAFE119BCDE90201303305F8013B12
:10440000DDE90A23FCF7DAFA002863D1DDE90223AB
:1044100000203749FBF7A8FEDDE90A23FCF7CEFAB6
:10442000002840F0B580069BEB1A9E427FF77CAFD8
:10443000DDE90A0100222F4BFCF74EF80022CDE9FE
:104440000A01DDE902012B4BFCF746F8CDE9020138
:10445000C3E7DDE90A23FCF73FF8069BCDE90A0133
:104460009D191E46DDE90201FCF7E6FA1190FBF703
:10447000C9FF02460B46DDE90201FBF775FE119B01
:10448000CDE90201303306F8013BAE424FF00002A5
:1044900024D1DDE90A011A4BFBF768FE02460B4600
:1044A000DDE90201FCF7A8FA002871D1DDE90A2351
:1044B00000201349FBF758FE02460B46DDE90201D6
:1044C000FCF77CFA00283FF42FAF15F8013C6A1E78
:1044D000302B01D0BA464AE01546F6E7054BFBF70C
:1044E000FBFFCDE90201BDE7A05F0008785F00088F
:1044F0000000F03F0000244000001C400000144079
:104500000000E03F069DDDE90267DDE90423304657
:104510003946FCF70BF9FCF78FFA8146FBF772FF7F
:10452000DDE90423FBF7D8FF02460B463046394647
:10453000FBF71AFE09F1300605F8016B069E0246EC
:10454000AE1BB0450B4635D1FBF710FEDDE9042369
:1045500006460F46FCF750FAC8B9DDE90423304699
:104560003946FCF721FA10B119F0010F0FD1594665
:10457000204600F0AAFC0023209A2B700AF10103C8
:104580001360229B002B3FF4F3AC1D60F0E4574610
:1045900015F8012C6B1E392A06D1069A9A4207D1CA
:1045A00030231370134601371A7801321A7091E7DD
:1045B0001D46EDE70022994BFBF78EFF00220023FA
:1045C00006460F46FCF7F0F900289ED0CFE7099A7F
:1045D000002A00F088801E9A012A6DDC109A002AB9
:1045E00066D003F233434D46089E079A01211A44D0
:1045F00020469944079200F008FD0746002D0BDD88
:10460000079B002B08DDAB42A8BF2B46079AA9EBFE
:104610000309ED1AD31A0793089BEBB1099B002BF2
:1046200065D08EB139463246204600F08DFD5A469F
:1046300001460746204600F0F1FC59460A90204604
:1046400000F043FC0A9B9B46089B9A1B04D05946EA
:10465000204600F079FD83460121204600F0D5FC7C
:104660000C9B0646002B00F0C6811A4601462046E8
:1046700000F06AFD1E9B0646012B3EDC029B002BD0
:1046800037D1039BC3F31303002B34D1039B23F0D7
:1046900000431B0D1B052BB1079B09F101090133D9
:1046A0000793012308930C9B002B28D101202EE0B7
:1046B000129BC3F1360396E7089B08F1FF36B3421D
:1046C000B7BF089B9E1BF21A0C9BBFBF08969B1896
:1046D0000C930026B8F1000FB9BFA9EB0805002321
:1046E0004D46434681E7089E4D46099F86E7089A56
:1046F000ADE70023D6E7029BD4E700230893336994
:1047000006EB8303186900F032FCC0F12000079B20
:10471000184410F01F0047D0C0F12003042B3BDDEC
:10472000079BC0F11C008144054403440793B9F181
:10473000000F05DD59464A46204600F053FD8346EA
:10474000079B002B05DD31461A46204600F04AFD46
:1047500006460D9B53B33146584600F097FD00289E
:1047600024DA002359460A22204600F0C5FB099BA3
:104770000AF1FF3A8346002B00F0448100233946BA
:104780000A22204600F0B8FB049B0746002B4DDCB4
:104790001E9B022B4ADD11E0C9D0079A1C331A4434
:1047A00099441D441346C1E70346F6E7B8F1000FEC
:1047B00036DC1E9B022B33DDCDF81080049B63B9E1
:1047C00031460522204600F097FB01460646584632
:1047D00000F05CFD00283FF7D3AD1F9B069D6FEAFC
:1047E000030A4FF000093146204600F06EFB002F0F
:1047F0003FF4BDAEB9F1000F05D0B94503D049462D
:10480000204600F062FB3946204600F05EFBAEE633
:1048100000263746E1E7BA463746B1E500002440B6
:10482000099BCDF81080002B00F0F380002D05DDF2
:1048300039462A46204600F0D5FC0746089B002B47
:104840004CD07968204600F00CFB05463A6907F128
:104850000C01023292000C3000F0F8FA01222946D5
:10486000204600F0BFFCB9460746069B0793029B13
:1048700003F00103089331465846FFF7A1FA494671
:10488000054600F13008584600F000FD3A46029017
:104890003146204600F014FDC368024603BB0146C2
:1048A0000990584600F0F2FC0346099A114620464A
:1048B000099300F00AFB099BA3B91E9A92B9089AC2
:1048C00082B9B8F1390F29D0029B002B01DD05F127
:1048D0003108079B5D1C83F8008084E73846C2E7F7
:1048E0000123E3E7029A002A04DB23D11E9A0ABBC4
:1048F000089AFAB9002BECDD59460122204600F057
:1049000071FC3146834600F0C1FC002803DCE0D195
:1049100018F0010FDDD0B8F1390FD8D1079B079AF5
:104920005D1C3923137015F8013C6A1E392B4DD0DC
:10493000013352E0079A002B02F1010506DDB8F1C0
:10494000390FEBD008F10108079BC4E7069B049AD6
:10495000EB1A934205F8018C21D0594600230A2214
:10496000204600F0C9FAB94583464FF000034FF0E6
:104970000A024946204605D100F0BEFA81460746A4
:10498000079578E700F0B8FA3946814600230A22F5
:10499000204600F0B1FA0746F2E74FF00009594609
:1049A0000122204600F01EFC3146834600F06EFCDA
:1049B0000028B8DC02D118F0010FB4D115F8013C81
:1049C0006A1E302B7FF40FAF1546F7E7069B934224
:1049D00005D13123069A0AF1010A137003E715463F
:1049E000A1E7174BFFF7E1BA229B002B7FF4BBAA8C
:1049F000144BFFF7DABA1E9B012B7FF73FAE0C9BDF
:104A0000089353E6049B002B03DC1E9B022B3FF70D
:104A1000D5AE069D31465846FFF7D2F9069B00F108
:104A2000300805F8018B049AEB1A9A42B5DD594615
:104A300000230A22204600F05FFA8346EAE700BF1F
:104A4000E45E0008085F00088A892DE9F041054608
:104A500010070C4658D44B68002B05DC0B6C002B60
:104A600002DC0020BDE8F081E66A002EF9D00023C8
:104A700012F480522F68216A2B6032D0606DA389B6
:104A80005A0705D56368C01A636B0BB1236CC01A53
:104A900000230246E66A216A2846B047431CA389E0
:104AA00006D129681D2948D8294ACA40D60744D5C5
:104AB000002262602269D904226004D5421C01D11F
:104AC0002B6803B96065616B2F600029C9D004F1C0
:104AD0004403994202D0284600F0AEFC00206063F7
:104AE000C0E701232846B047411CC8D12B68002BE2
:104AF000C5D01D2B01D0162B01D12F60B1E7A389A2
:104B000043F04003A381ADE70F69002FA9D09307BD
:104B100018BF00230E6808BF4B69A6EB07080F609B
:104B20008B60B8F1000F9CDD43463A46216A284667
:104B3000A66AB047002806DCA38943F04003A3819E
:104B40004FF0FF308EE70744A8EB0008E9E700BF0D
:104B50000100402038B50B6905460C46DBB118B1A1
:104B600083690BB900F060F80C4B9C4209D16C686A
:104B7000B4F90C307BB121462846BDE83840FFF738
:104B800063BF074B9C4201D1AC68F1E7054B9C42E7
:104B900008BFEC68ECE7002038BD00BF385F0008B4
:104BA000585F0008185F0008002310B50446C0E9EC
:104BB0000033836081814366C281C0E9043383612D
:104BC000194608225C30FEF72DFB054B2462636218
:104BD000044BA362044BE362044B236310BD00BF8C
:104BE000BD5A0008DF5A0008175B00083B5B00084D
:104BF000014900F085B800BF554B000870B5682525
:104C00004A1E55430E4605F1740100F061FC04464E
:104C100040B10021C0E900160C30A06005F1680227
:104C2000FEF700FB204670BD836910B5044633BB18
:104C3000C0E912330365124B124A1B688262984224
:104C400004BF0123836100F01FF86060204600F07C
:104C50001BF8A060204600F017F80022E060042155
:104C60006068FFF7A1FF01220921A068FFF79CFF00
:104C700002221221E068FFF797FF0123A36110BD14
:104C8000D05E0008F14B0008F8B51B4B07461E68C4
:104C9000B36913B93046FFF7C7FF4836D6E9013488
:104CA000013B03D5336833B13668F7E7B4F90C50EC
:104CB0006DB16834F4E704213846FFF79FFF306098
:104CC0000028F1D10C2304463B602046F8BD0B4B75
:104CD0006566C4E90055A560C4E90335C4E9055516
:104CE0000822294604F15C00FEF79CFAC4E90D5540
:104CF000C4E91255E9E700BFD05E00080100FFFFDC
:104D00002DE9F84380468946002600F1480414B98D
:104D10003046BDE8F883D4E90175013F01D5246828
:104D2000F5E7AB89012B07D9B5F90E30013303D074
:104D300029464046C84706436835EEE7044B1B68E2
:104D4000186A044B002808BF1846F030704700BFAF
:104D50000C0000207000002070B50E46B1F90E1056
:104D600096B0002914461D4607DA00232B60B3894C
:104D70001A0610D44FF480630EE06A4600F004FF78
:104D80000028F2DB019A02F47042A2F500535A4265
:104D90005A412A60EEE740230020236016B070BD20
:104DA0008B8973B59D0706460C4607D504F147036A
:104DB000236023610123636102B070BD01AB6A46C9
:104DC000FFF7CAFF00990546304600F081FB48B95D
:104DD000B4F90C309A05EFD423F0030343F0020337
:104DE000A381E3E70D4BB362A389206043F0800306
:104DF000A381009B20616361019B5BB1B4F90E103C
:104E0000304600F0D3FE28B1A38923F0030343F01A
:104E10000103A381A3891D43A581CDE7F14B0008C0
:104E2000024B0146186800F053BB00BF0C00002085
:104E300010B5C9B202449042034601D1002303E0F9
:104E40001C7801308C42F6D1184610BD10B5431EB7
:104E50000A44914200D110BD11F8014B03F8014FF3
:104E6000F7E770B5456A04460E463DB91020FFF7D6
:104E7000D7FF6062C0E901550560C560656AEB68EF
:104E800083B1636ADB6853F82600B8B9012101FADF
:104E900006F56A1D9200204600F0BFFA60B1C0E935
:104EA00001650EE021220421204600F0B6FA636A73
:104EB000E860DB68002BE4D1002070BD026843F895
:104EC00026200023C0E90333F7E770B5446A06469D
:104ED0000D463CB91020FFF7A3FF7062C0E9014402
:104EE0000460C4603DB1736A6A68DB6853F82210DD
:104EF000296043F8225070BD2DE9F0411F46064657
:104F00000C4600230D6901F1140CDCF8000001339C
:104F100081B202FB0171000C0F0C02FB007089B220
:104F200001EB00419D424FEA10474CF8041BECDCBA
:104F3000D7B1A368AB4212DC616830460131FFF79C
:104F400090FF8046226904F10C01023292000C307D
:104F5000FFF77CFF21463046FFF7B7FF444604EBDE
:104F6000850301355F6125612046BDE8F081020CB3
:104F700012040346B2B90304102013F07F4F04BF9C
:104F80001B02083013F0704F04BF1B01043013F0F4
:104F9000404F04BF9B000230002B06DB5B0003D5B3
:104FA000013070470020E8E7202070470368014681
:104FB00013F007020BD0DA0723D4980749BF5B0828
:104FC0009B0801200B605CBF0B600220704798B209
:104FD000A8B910201B0C13F0FF0F04BF1B0A0830E8
:104FE0001A0704BF1B0904309A0704BF9B0802304C
:104FF000DA0702D45B0806D001300B607047104618
:10500000E9E7002070472020704710B50C460121C9
:10501000FFF727FF01224461026110BD2DE9F74F20
:1050200014460A69236988469A42BEBF0B46A046C9
:105030001C46D8F81070D4F81090D8F80830D8F87A
:10504000041007EB0906B342B8BF0131FFF709FFAF
:1050500000F114052B46002205EB860E734516D38E
:1050600004F1140208F1140102EB890301EB870734
:105070000093009B019293420CD8002E03DD5EF852
:10508000043D002B5DD0066103B0BDE8F08F43F80E
:10509000042BE3E7B2F800B0BBF1000F23D0894640
:1050A000AC464FF0000859F8044BDCF800A0A3B25E
:1050B0001FFA8AFA0BFB03A34FEA144ADCF80040FC
:1050C00043444FEA14480BFB0A84E24604EB1344C2
:1050D0009BB243EA04434F454FEA14484AF8043B65
:1050E0002BD8CCF80480019B0432B3F802A0BAF1AB
:1050F000000F20D08946A8464FF0000B2B68B9F866
:1051000000C0B8F802409BB20AFB0C44C4465C44A1
:1051100043EA04434CF8043B59F8043BB8F804B0A4
:105120001B0C0AFB03B34F4503EB14434FEA134B2D
:1051300005D8C8F8043004359BE7D446B3E7E04609
:10514000DDE7013E99E700002DE9F843154612F02E
:10515000030206460F4607D0214C013A002354F8BB
:105160002220FFF7C9FE0746AD1035D0746A3CB95E
:105170001020FFF755FE7062C0E901440460C4606E
:10518000D6F82480D8F808404CB940F27121304656
:10519000FFF73BFF00230446C8F8080003604FF008
:1051A0000008EB070AD5394622463046FFF736FF9E
:1051B000814639463046FFF788FE4F466D100BD0CA
:1051C000206838B9224621463046FFF727FF206085
:1051D000C0F800800446E4E73846BDE8F88300BF25
:1051E000686000082DE9F0470C460746164623691B
:1051F0004FEA621A0AEB03094968A36809F101053D
:10520000AB4232DB3846FFF72CFE002380461A46BD
:1052100000F1140153452BDB20692AEAEA7A04F1F4
:10522000140316F01F0201EB8A0103EB800C25D05A
:105230000020C2F1200E8A461E68964030434AF88C
:10524000040B53F8040B9C4520FA0EF014D8486068
:1052500008B109F10205013D3846C8F81050214651
:10526000FFF733FE4046BDE8F08701315B00C7E73A
:1052700041F823200133CDE75146DCE7043953F8E8
:10528000042B9C4541F8042FF9D8E4E703690A6927
:1052900030B59B1A0CD1920014301431841811448B
:1052A00054F8045D51F8042D954203D005D3012331
:1052B000184630BDA042F3D3FAE74FF0FF33F7E7CB
:1052C0002DE9F0470D460746114628461446FFF7DC
:1052D000DDFF061E08D131463846FFF7C2FD012327
:1052E000C0E90436BDE8F087A4BF23462C46384603
:1052F0006168A6BF1D4600260126FFF7B2FD4FF0EC
:10530000000EC6602B69266904F1140205F1140928
:1053100002EB860709EB830800F1140152F804AB95
:1053200059F8045B1FFA8AF37344ACB21B1B2C0CB4
:10533000C4EB1A4404EB23449BB24FEA244EC84505
:1053400043EA0444944641F8044BE7D8BC4504D3EF
:1053500051F8043D83B10661C4E75CF8044BA2B286
:105360007244131403EB144392B242EA03424FEA2D
:10537000234E41F8042BE9E7013EE9E72DE9F3412B
:105380001C46DDE9086501219046FFF76AFDC4F37C
:105390001302C4F30A54074634BB0192B8F1000269
:1053A00027D002A840F8082DFFF700FE0099F0B1C1
:1053B000019AC0F1200302FA03F30B43C2407B6160
:1053C0000192019B002B14BF02210121BB613961B5
:1053D000C4B1A4F2334404443460C0F13500286001
:1053E000384602B0BDE8F08142F48012D5E7796119
:1053F000E7E701A8FFF7DAFD0121019B39617B6135
:105400002030E5E7A0F2324007EB810330601869F5
:10541000FFF7ADFDC0EB4110E1E738B502FB01F449
:10542000214600F055F8054618B122460021FDF747
:10543000F9FE284638BD000038B50546002943D09E
:1054400051F8043C0C1F002BB8BFE41800F0FBFB24
:105450001E4A1368104633B9636014602846BDE8DD
:10546000384000F0F1BBA3420BD921686218934287
:1054700001BF1A685B685218226063600460EDE740
:1054800013465A680AB1A242FAD919685818A042BC
:105490000BD120680144581882421960DED110688F
:1054A0005268014419605A60D8E702D90C232B6076
:1054B000D4E7206821188A4201BF11685268091890
:1054C000216062605C60C9E738BD00BFE80300206E
:1054D00070B5CD1C25F0030508350C2D38BF0C2503
:1054E000002D064601DBA94203D90C2333600020BE
:1054F00070BD00F0A8FB214A1468214691B9204CE8
:1055000023681BB9304600F0C9FA206029463046AE
:1055100000F0C4FA431C24D10C233046336000F061
:1055200093FBE4E70B685B1B18D40B2B0FD90B60C4
:10553000CC18CD50304600F087FB04F10B00231D42
:1055400020F00700C31AD3D05A42E250D0E74B688C
:105550008C4216BF636013600C46EBE70C4649684B
:10556000CCE7C41C24F00304A04205D0211A304625
:1055700000F094FA0130CFD02560DBE7E80300208B
:10558000EC0300202DE9F0478E6882469E420C46CF
:105590009046994637D88A8912F4906F31D0022309
:1055A000256809696F1A656905EB450595FBF3F5F3
:1055B00009F101033B449D4238BF1D46530530D5D8
:1055C0002946FFF785FF064650B90C234FF0FF3000
:1055D000CAF80030A38943F04003A381BDE8F087F7
:1055E0003A462169FFF732FCA38923F4906343F024
:1055F0008003A38126613E4426604E466561ED1B13
:10560000A5604E4500D94E4632464146206800F01E
:1056100001FBA36800209B1BA36023681E44266037
:10562000DCE72A4600F011FB06460028E2D121699A
:105630005046FFF701FFC8E72DE9F04F9DB00393F7
:105640008B8980461D060C4616460FD50B696BB933
:105650004021FFF73DFF2060206128B90C23C8F8E6
:1056600000304FF0FF30C7E040236361002309930F
:1056700020238DF8293030234FF0010B8DF82A308C
:1056800037463D4615F8013B0BB1252B3ED1B7EB14
:10569000060A0BD05346324621464046FFF772FFBA
:1056A000013000F0A480099B534409933B78002B00
:1056B00000F09D8000234FF0FF32CDE905230493D5
:1056C00007938DF853301A932F46052217F8011BC4
:1056D0004F48FFF7ADFB049BD0B9D90644BF202249
:1056E0008DF853201A0744BF2B228DF853202A78B7
:1056F0002A2A15D02F4600200A25079A394611F884
:10570000013B303B092B4DD9B8B10FE02F46B8E72C
:105710003F4A3D46801A0BFA00F018430490D3E745
:10572000039A111D12680391002A01DB079204E01D
:10573000524243F00203079204933B782E2B0CD184
:105740007B782A2B33D1039B02371A1D1B680392E7
:10575000002BB8BF4FF0FF3305932E4D032239784D
:105760002846FFF765FB38B14023401B03FA00F0E1
:10577000049B0137034304933978062226487E1C94
:105780008DF82810FFF754FB002838D0234B13BBAB
:10579000039B073323F0070308330393099B4B4410
:1057A00009936DE705FB023201200F46A6E70023AF
:1057B0000A25194601370593384610F8012B303A6F
:1057C000092A03D9002BC8D00591C6E705FB0121A2
:1057D00001230746F0E703AB00932246104B04A9D0
:1057E0004046FDF7B9FDB0F1FF3F8146D6D1A38910
:1057F0005B063FF536AF09981DB0BDE8F08F03ABEF
:1058000000932246064B04A94046FEF751F8EAE70A
:10581000746000087A6000087E6000085933000850
:1058200085550008936810B4013B002B936007DA9C
:105830009469A34201DB0A2902D110BCFEF700BA29
:105840001368581C10601970084610BC7047F8B5F2
:1058500006460F461446D518AC4201D1002007E099
:105860003A4614F8011B3046FFF7DCFF431CF3D126
:10587000F8BD00002DE9F04F9DB00C46174603938C
:10588000064618B183690BB9FFF7CEF97B4B9C42F2
:1058900057D17468A38918075DD52369002B5AD0A6
:1058A0000023099320238DF8293030234FF0010B7A
:1058B0008DF82A30B846454615F8013B0BB1252B2B
:1058C00054D1B8EB070A0BD053463A46214630462E
:1058D000FFF7BDFF013000F0C280099B53440993DC
:1058E00098F80030002B00F0BA8000234FF0FF3210
:1058F000CDE90523049307938DF853301A93A846F6
:10590000052218F8011B5E48FFF792FA049B78BB4A
:10591000D90644BF20228DF853201A0744BF2B22FA
:105920008DF853202A782A2A2AD0A84600200A2552
:10593000079A414611F8013B303B092B69D960B306
:1059400024E0504B9C4201D1B468A3E74E4B9C42EB
:1059500008BFF4689EE721463046FEF7C3F90028E9
:105960009ED04FF0FF301DB0BDE8F08FA846A2E7F3
:10597000434A4546801A0BFA00F018430490BEE7EC
:10598000039A111D12680391002A01DB079204E0BB
:10599000524243F002030792049398F800302E2BF2
:1059A0000ED198F801302A2B38D1039B08F1020858
:1059B0001A1D1B680392002BB8BF4FF0FF330593ED
:1059C000324D032298F800102846FFF731FA40B113
:1059D0004023401B03FA00F0049B08F10108034335
:1059E000049398F800100622294808F101078DF861
:1059F0002810FFF71DFA002837D0264B1BBB039B4E
:105A0000073323F0070308330393099B4B4409939F
:105A100050E705FB0232012088468AE700230A2569
:105A2000194608F101080593404610F8012B303A59
:105A3000092A03D9002BC3D00591C1E705FB012139
:105A400001238046F0E703AB00932246124B04A9E2
:105A50003046FDF781FCB0F1FF3F8146D5D1A389E7
:105A60005B063FF57EAF09987DE703AB00932246C6
:105A7000094B04A93046FDF71BFFECE7385F00082F
:105A800074600008585F0008185F00087A6000081A
:105A90007E600008593300084F58000838B50023CD
:105AA000054C05460846236000F0A0F9431C02D1CE
:105AB000236803B12B6038BDF403002010B50C46F9
:105AC000B1F90E1000F0E8F80028ABBF636DA389B0
:105AD0001B1823F48053ACBF6365A38110BD2DE96F
